{
    "contractName": "Route",
    "abi": [
        {
            "inputs": [],
            "stateMutability": "nonpayable",
            "type": "constructor"
        },
        {
            "anonymous": false,
            "inputs": [
                {
                    "indexed": true,
                    "internalType": "address",
                    "name": "owner",
                    "type": "address"
                },
                {
                    "indexed": true,
                    "internalType": "address",
                    "name": "spender",
                    "type": "address"
                },
                {
                    "indexed": false,
                    "internalType": "uint256",
                    "name": "amount",
                    "type": "uint256"
                }
            ],
            "name": "Approval",
            "type": "event"
        },
        {
            "anonymous": false,
            "inputs": [
                {
                    "indexed": true,
                    "internalType": "address",
                    "name": "delegator",
                    "type": "address"
                },
                {
                    "indexed": true,
                    "internalType": "address",
                    "name": "fromDelegate",
                    "type": "address"
                },
                {
                    "indexed": true,
                    "internalType": "address",
                    "name": "toDelegate",
                    "type": "address"
                }
            ],
            "name": "DelegateChanged",
            "type": "event"
        },
        {
            "anonymous": false,
            "inputs": [
                {
                    "indexed": true,
                    "internalType": "address",
                    "name": "delegate",
                    "type": "address"
                },
                {
                    "indexed": false,
                    "internalType": "uint256",
                    "name": "previousBalance",
                    "type": "uint256"
                },
                {
                    "indexed": false,
                    "internalType": "uint256",
                    "name": "newBalance",
                    "type": "uint256"
                }
            ],
            "name": "DelegateVotesChanged",
            "type": "event"
        },
        {
            "anonymous": false,
            "inputs": [
                {
                    "indexed": false,
                    "internalType": "address",
                    "name": "userAddress",
                    "type": "address"
                },
                {
                    "indexed": false,
                    "internalType": "address payable",
                    "name": "relayerAddress",
                    "type": "address"
                },
                {
                    "indexed": false,
                    "internalType": "bytes",
                    "name": "functionSignature",
                    "type": "bytes"
                }
            ],
            "name": "MetaTransactionExecuted",
            "type": "event"
        },
        {
            "anonymous": false,
            "inputs": [
                {
                    "indexed": true,
                    "internalType": "address",
                    "name": "from",
                    "type": "address"
                },
                {
                    "indexed": true,
                    "internalType": "address",
                    "name": "to",
                    "type": "address"
                },
                {
                    "indexed": false,
                    "internalType": "uint256",
                    "name": "amount",
                    "type": "uint256"
                }
            ],
            "name": "Transfer",
            "type": "event"
        },
        {
            "inputs": [],
            "name": "DELEGATION_TYPEHASH",
            "outputs": [
                {
                    "internalType": "bytes32",
                    "name": "",
                    "type": "bytes32"
                }
            ],
            "stateMutability": "view",
            "type": "function"
        },
        {
            "inputs": [],
            "name": "DOMAIN_TYPEHASH",
            "outputs": [
                {
                    "internalType": "bytes32",
                    "name": "",
                    "type": "bytes32"
                }
            ],
            "stateMutability": "view",
            "type": "function"
        },
        {
            "inputs": [],
            "name": "ERC712_VERSION",
            "outputs": [
                {
                    "internalType": "string",
                    "name": "",
                    "type": "string"
                }
            ],
            "stateMutability": "view",
            "type": "function"
        },
        {
            "inputs": [],
            "name": "PERMIT_TYPEHASH",
            "outputs": [
                {
                    "internalType": "bytes32",
                    "name": "",
                    "type": "bytes32"
                }
            ],
            "stateMutability": "view",
            "type": "function"
        },
        {
            "inputs": [
                {
                    "internalType": "address",
                    "name": "account",
                    "type": "address"
                },
                {
                    "internalType": "address",
                    "name": "spender",
                    "type": "address"
                }
            ],
            "name": "allowance",
            "outputs": [
                {
                    "internalType": "uint256",
                    "name": "",
                    "type": "uint256"
                }
            ],
            "stateMutability": "view",
            "type": "function"
        },
        {
            "inputs": [
                {
                    "internalType": "address",
                    "name": "spender",
                    "type": "address"
                },
                {
                    "internalType": "uint256",
                    "name": "rawAmount",
                    "type": "uint256"
                }
            ],
            "name": "approve",
            "outputs": [
                {
                    "internalType": "bool",
                    "name": "",
                    "type": "bool"
                }
            ],
            "stateMutability": "nonpayable",
            "type": "function"
        },
        {
            "inputs": [
                {
                    "internalType": "address",
                    "name": "account",
                    "type": "address"
                }
            ],
            "name": "balanceOf",
            "outputs": [
                {
                    "internalType": "uint256",
                    "name": "",
                    "type": "uint256"
                }
            ],
            "stateMutability": "view",
            "type": "function"
        },
        {
            "inputs": [
                {
                    "internalType": "address",
                    "name": "",
                    "type": "address"
                },
                {
                    "internalType": "uint32",
                    "name": "",
                    "type": "uint32"
                }
            ],
            "name": "checkpoints",
            "outputs": [
                {
                    "internalType": "uint32",
                    "name": "fromBlock",
                    "type": "uint32"
                },
                {
                    "internalType": "uint256",
                    "name": "votes",
                    "type": "uint256"
                }
            ],
            "stateMutability": "view",
            "type": "function"
        },
        {
            "inputs": [],
            "name": "decimals",
            "outputs": [
                {
                    "internalType": "uint8",
                    "name": "",
                    "type": "uint8"
                }
            ],
            "stateMutability": "view",
            "type": "function"
        },
        {
            "inputs": [
                {
                    "internalType": "address",
                    "name": "delegatee",
                    "type": "address"
                }
            ],
            "name": "delegate",
            "outputs": [],
            "stateMutability": "nonpayable",
            "type": "function"
        },
        {
            "inputs": [
                {
                    "internalType": "address",
                    "name": "delegatee",
                    "type": "address"
                },
                {
                    "internalType": "uint256",
                    "name": "nonce",
                    "type": "uint256"
                },
                {
                    "internalType": "uint256",
                    "name": "expiry",
                    "type": "uint256"
                },
                {
                    "internalType": "uint8",
                    "name": "v",
                    "type": "uint8"
                },
                {
                    "internalType": "bytes32",
                    "name": "r",
                    "type": "bytes32"
                },
                {
                    "internalType": "bytes32",
                    "name": "s",
                    "type": "bytes32"
                }
            ],
            "name": "delegateBySig",
            "outputs": [],
            "stateMutability": "nonpayable",
            "type": "function"
        },
        {
            "inputs": [
                {
                    "internalType": "address",
                    "name": "",
                    "type": "address"
                }
            ],
            "name": "delegates",
            "outputs": [
                {
                    "internalType": "address",
                    "name": "",
                    "type": "address"
                }
            ],
            "stateMutability": "view",
            "type": "function"
        },
        {
            "inputs": [
                {
                    "internalType": "address",
                    "name": "userAddress",
                    "type": "address"
                },
                {
                    "internalType": "bytes",
                    "name": "functionSignature",
                    "type": "bytes"
                },
                {
                    "internalType": "bytes32",
                    "name": "sigR",
                    "type": "bytes32"
                },
                {
                    "internalType": "bytes32",
                    "name": "sigS",
                    "type": "bytes32"
                },
                {
                    "internalType": "uint8",
                    "name": "sigV",
                    "type": "uint8"
                }
            ],
            "name": "executeMetaTransaction",
            "outputs": [
                {
                    "internalType": "bytes",
                    "name": "",
                    "type": "bytes"
                }
            ],
            "stateMutability": "payable",
            "type": "function"
        },
        {
            "inputs": [],
            "name": "getChainId",
            "outputs": [
                {
                    "internalType": "uint256",
                    "name": "",
                    "type": "uint256"
                }
            ],
            "stateMutability": "view",
            "type": "function"
        },
        {
            "inputs": [
                {
                    "internalType": "address",
                    "name": "account",
                    "type": "address"
                }
            ],
            "name": "getCurrentVotes",
            "outputs": [
                {
                    "internalType": "uint256",
                    "name": "",
                    "type": "uint256"
                }
            ],
            "stateMutability": "view",
            "type": "function"
        },
        {
            "inputs": [],
            "name": "getDomainSeperator",
            "outputs": [
                {
                    "internalType": "bytes32",
                    "name": "",
                    "type": "bytes32"
                }
            ],
            "stateMutability": "view",
            "type": "function"
        },
        {
            "inputs": [
                {
                    "internalType": "address",
                    "name": "user",
                    "type": "address"
                }
            ],
            "name": "getNonce",
            "outputs": [
                {
                    "internalType": "uint256",
                    "name": "nonce",
                    "type": "uint256"
                }
            ],
            "stateMutability": "view",
            "type": "function"
        },
        {
            "inputs": [
                {
                    "internalType": "address",
                    "name": "account",
                    "type": "address"
                },
                {
                    "internalType": "uint256",
                    "name": "blockNumber",
                    "type": "uint256"
                }
            ],
            "name": "getPriorVotes",
            "outputs": [
                {
                    "internalType": "uint256",
                    "name": "",
                    "type": "uint256"
                }
            ],
            "stateMutability": "view",
            "type": "function"
        },
        {
            "inputs": [],
            "name": "name",
            "outputs": [
                {
                    "internalType": "string",
                    "name": "",
                    "type": "string"
                }
            ],
            "stateMutability": "view",
            "type": "function"
        },
        {
            "inputs": [
                {
                    "internalType": "address",
                    "name": "",
                    "type": "address"
                }
            ],
            "name": "nonces",
            "outputs": [
                {
                    "internalType": "uint256",
                    "name": "",
                    "type": "uint256"
                }
            ],
            "stateMutability": "view",
            "type": "function"
        },
        {
            "inputs": [
                {
                    "internalType": "address",
                    "name": "",
                    "type": "address"
                }
            ],
            "name": "numCheckpoints",
            "outputs": [
                {
                    "internalType": "uint32",
                    "name": "",
                    "type": "uint32"
                }
            ],
            "stateMutability": "view",
            "type": "function"
        },
        {
            "inputs": [
                {
                    "internalType": "address",
                    "name": "owner",
                    "type": "address"
                },
                {
                    "internalType": "address",
                    "name": "spender",
                    "type": "address"
                },
                {
                    "internalType": "uint256",
                    "name": "rawAmount",
                    "type": "uint256"
                },
                {
                    "internalType": "uint256",
                    "name": "deadline",
                    "type": "uint256"
                },
                {
                    "internalType": "uint8",
                    "name": "v",
                    "type": "uint8"
                },
                {
                    "internalType": "bytes32",
                    "name": "r",
                    "type": "bytes32"
                },
                {
                    "internalType": "bytes32",
                    "name": "s",
                    "type": "bytes32"
                }
            ],
            "name": "permit",
            "outputs": [],
            "stateMutability": "nonpayable",
            "type": "function"
        },
        {
            "inputs": [],
            "name": "symbol",
            "outputs": [
                {
                    "internalType": "string",
                    "name": "",
                    "type": "string"
                }
            ],
            "stateMutability": "view",
            "type": "function"
        },
        {
            "inputs": [],
            "name": "totalSupply",
            "outputs": [
                {
                    "internalType": "uint256",
                    "name": "",
                    "type": "uint256"
                }
            ],
            "stateMutability": "view",
            "type": "function"
        },
        {
            "inputs": [
                {
                    "internalType": "address",
                    "name": "dst",
                    "type": "address"
                },
                {
                    "internalType": "uint256",
                    "name": "rawAmount",
                    "type": "uint256"
                }
            ],
            "name": "transfer",
            "outputs": [
                {
                    "internalType": "bool",
                    "name": "",
                    "type": "bool"
                }
            ],
            "stateMutability": "nonpayable",
            "type": "function"
        },
        {
            "inputs": [
                {
                    "internalType": "address",
                    "name": "src",
                    "type": "address"
                },
                {
                    "internalType": "address",
                    "name": "dst",
                    "type": "address"
                },
                {
                    "internalType": "uint256",
                    "name": "rawAmount",
                    "type": "uint256"
                }
            ],
            "name": "transferFrom",
            "outputs": [
                {
                    "internalType": "bool",
                    "name": "",
                    "type": "bool"
                }
            ],
            "stateMutability": "nonpayable",
            "type": "function"
        }
    ],
    "bytecode": "60806040526000805460ff191690556a108b2a2c280290940000006003553480156200002a57600080fd5b50600354600560006200003c620000b6565b6001600160a01b0316815260208101919091526040016000205562000060620000b6565b6001600160a01b031660006001600160a01b03167fddf252ad1be2c89b69c2b068fc378daa952ba7f163c4a11628f55a4df523b3ef600354604051620000a891815260200190565b60405180910390a362000114565b60003033036200010e57600080368080601f0160208091040260200160405190810160405280939291908181526020018383808284376000920191909152505050503601516001600160a01b03169150620001119050565b50335b90565b61234480620001246000396000f3fe6080604052600436106101815760003560e01c80635c19a95c116100d1578063a9059cbb1161008a578063d505accf11610064578063d505accf1461053a578063dd62ed3e1461055a578063e7a324dc146105a0578063f1127ed8146105d457600080fd5b8063a9059cbb146104da578063b4b5ea57146104fa578063c3cda5201461051a57600080fd5b80635c19a95c146103bc5780636fcfff45146103de57806370a0823114610426578063782d6fe11461045c5780637ecebe001461047c57806395d89b41146104a957600080fd5b806320606b701161013e57806330adf81f1161011857806330adf81f14610300578063313ce567146103345780633408e4701461035b578063587cde1e1461036e57600080fd5b806320606b701461027657806323b872dd146102aa5780632d0335ab146102ca57600080fd5b806306fdde0314610186578063095ea7b3146101cd5780630c53c51c146101fd5780630f7e59701461021057806318160ddd1461023d57806320379ee514610261575b600080fd5b34801561019257600080fd5b506101b760405180604001604052806005815260200164526f75746560d81b81525081565b6040516101c49190611cd1565b60405180910390f35b3480156101d957600080fd5b506101ed6101e8366004611d00565b610638565b60405190151581526020016101c4565b6101b761020b366004611d51565b610704565b34801561021c57600080fd5b506101b7604051806040016040528060018152602001603160f81b81525081565b34801561024957600080fd5b5061025360035481565b6040519081526020016101c4565b34801561026d57600080fd5b50600154610253565b34801561028257600080fd5b506102537f8cad95687ba82c2ce50e74f7b754645e5117c3a5bec8151c0726d5857980a86681565b3480156102b657600080fd5b506101ed6102c5366004611e37565b6108f3565b3480156102d657600080fd5b506102536102e5366004611e73565b6001600160a01b031660009081526002602052604090205490565b34801561030c57600080fd5b506102537f6e71edae12b1b97f4d1f60370fef10105fa2faae0126114a169c64845d6126c981565b34801561034057600080fd5b50610349601281565b60405160ff90911681526020016101c4565b34801561036757600080fd5b5046610253565b34801561037a57600080fd5b506103a4610389366004611e73565b6006602052600090815260409020546001600160a01b031681565b6040516001600160a01b0390911681526020016101c4565b3480156103c857600080fd5b506103dc6103d7366004611e73565b610a18565b005b3480156103ea57600080fd5b506104116103f9366004611e73565b60086020526000908152604090205463ffffffff1681565b60405163ffffffff90911681526020016101c4565b34801561043257600080fd5b50610253610441366004611e73565b6001600160a01b031660009081526005602052604090205490565b34801561046857600080fd5b50610253610477366004611d00565b610a2c565b34801561048857600080fd5b50610253610497366004611e73565b60026020526000908152604090205481565b3480156104b557600080fd5b506101b760405180604001604052806005815260200164524f55544560d81b81525081565b3480156104e657600080fd5b506101ed6104f5366004611d00565b610c95565b34801561050657600080fd5b50610253610515366004611e73565b610cd7565b34801561052657600080fd5b506103dc610535366004611e8e565b610d4c565b34801561054657600080fd5b506103dc610555366004611ee6565b611029565b34801561056657600080fd5b50610253610575366004611f50565b6001600160a01b03918216600090815260046020908152604080832093909416825291909152205490565b3480156105ac57600080fd5b506102537fe48329057bfd03d55e49b547132e39cffd9c1820ad7b9d4c5307691425d15adf81565b3480156105e057600080fd5b5061061c6105ef366004611f83565b60076020908152600092835260408084209091529082529020805460019091015463ffffffff9091169082565b6040805163ffffffff90931683526020830191909152016101c4565b600080600019830361064d5750600019610671565b61066e8360405180606001604052806026815260200161229a602691395090565b90505b806004600061067e6113cc565b6001600160a01b03908116825260208083019390935260409182016000908120918916808252919093529120919091556106b66113cc565b6001600160a01b03167f8c5be1e5ebec7d5bd14f71427d1e84f3dd0314c0f7b2291e5b200ac8c7c3b925836040516106f091815260200190565b60405180910390a360019150505b92915050565b60408051606081810183526001600160a01b038816600081815260026020908152908590205484528301529181018690526107428782878787611428565b61079d5760405162461bcd60e51b815260206004820152602160248201527f5369676e657220616e64207369676e617475726520646f206e6f74206d6174636044820152600d60fb1b60648201526084015b60405180910390fd5b6001600160a01b0387166000908152600260205260409020546107c1906001611518565b6001600160a01b0388166000908152600260205260409081902091909155517f5845892132946850460bff5a0083f71031bc5bf9aadcd40f1de79423eac9b10b9061081190899033908a90611fc3565b60405180910390a1600080306001600160a01b0316888a604051602001610839929190611ff8565b60408051601f19818403018152908290526108539161202f565b6000604051808303816000865af19150503d8060008114610890576040519150601f19603f3d011682016040523d82523d6000602084013e610895565b606091505b5091509150816108e75760405162461bcd60e51b815260206004820152601c60248201527f46756e6374696f6e2063616c6c206e6f74207375636365737366756c000000006044820152606401610794565b98975050505050505050565b6000806108fe6113cc565b6001600160a01b038087166000908152600460209081526040808320938516835292815282822054835160608101909452602680855294955093919261094b92889261229a908301395090565b9050866001600160a01b0316836001600160a01b03161415801561097157506000198214155b15610a0057600061099b83836040518060600160405280603e81526020016121a6603e9139611577565b6001600160a01b038981166000818152600460209081526040808320948a16808452948252918290208590559051848152939450919290917f8c5be1e5ebec7d5bd14f71427d1e84f3dd0314c0f7b2291e5b200ac8c7c3b925910160405180910390a3505b610a0b8787836115ae565b5060019695505050505050565b610a29610a236113cc565b826117ce565b50565b6000438210610a8e5760405162461bcd60e51b815260206004820152602860248201527f526f7574653a3a6765745072696f72566f7465733a206e6f74207965742064656044820152671d195c9b5a5b995960c21b6064820152608401610794565b6001600160a01b03831660009081526008602052604081205463ffffffff1690819003610abf5760009150506106fe565b6001600160a01b03841660009081526007602052604081208491610ae4600185612061565b63ffffffff90811682526020820192909252604001600020541611610b4d576001600160a01b038416600090815260076020526040812090610b27600184612061565b63ffffffff1663ffffffff168152602001908152602001600020600101549150506106fe565b6001600160a01b038416600090815260076020908152604080832083805290915290205463ffffffff16831015610b885760009150506106fe565b600080610b96600184612061565b90505b8163ffffffff168163ffffffff161115610c5e5760006002610bbb8484612061565b610bc59190612085565b610bcf9083612061565b6001600160a01b038816600090815260076020908152604080832063ffffffff8086168552908352928190208151808301909252805490931680825260019093015491810191909152919250879003610c32576020015194506106fe9350505050565b805163ffffffff16871115610c4957819350610c57565b610c54600183612061565b92505b5050610b99565b506001600160a01b038516600090815260076020908152604080832063ffffffff9094168352929052206001015491505092915050565b600080610cb9836040518060600160405280602781526020016122e8602791395090565b9050610ccd610cc66113cc565b85836115ae565b5060019392505050565b6001600160a01b03811660009081526008602052604081205463ffffffff1680610d02576000610d45565b6001600160a01b038316600090815260076020526040812090610d26600184612061565b63ffffffff1663ffffffff168152602001908152602001600020600101545b9392505050565b6040805180820182526005815264526f75746560d81b60209182015281517f8cad95687ba82c2ce50e74f7b754645e5117c3a5bec8151c0726d5857980a866818301527fc42f6bbfbb95e5213e47275c8226de1297d43ea8038fc78774d1b8e60abf61e481840152466060820152306080808301919091528351808303909101815260a0820184528051908301207fe48329057bfd03d55e49b547132e39cffd9c1820ad7b9d4c5307691425d15adf60c08301526001600160a01b038a1660e08301526101008201899052610120808301899052845180840390910181526101408301909452835193909201929092209091600090610e529084908490610160016120b6565b60408051601f198184030181528282528051602091820120600080855291840180845281905260ff8a169284019290925260608301889052608083018790529092509060019060a0016020604051602081039080840390855afa158015610ebd573d6000803e3d6000fd5b5050604051601f1901519150506001600160a01b038116610f305760405162461bcd60e51b815260206004820152602760248201527f526f7574653a3a64656c656761746542795369673a20696e76616c6964207369604482015266676e617475726560c81b6064820152608401610794565b6001600160a01b0381166000908152600260205260408120805491610f54836120d1565b919050558914610fb25760405162461bcd60e51b815260206004820152602360248201527f526f7574653a3a64656c656761746542795369673a20696e76616c6964206e6f6044820152626e636560e81b6064820152608401610794565b874211156110125760405162461bcd60e51b815260206004820152602760248201527f526f7574653a3a64656c656761746542795369673a207369676e617475726520604482015266195e1c1a5c995960ca1b6064820152608401610794565b61101c818b6117ce565b505050505b505050505050565b6000600019860361103d5750600019611061565b61105e86604051806060016040528060258152602001612275602591395090565b90505b6040805180820182526005815264526f75746560d81b60209182015281517f8cad95687ba82c2ce50e74f7b754645e5117c3a5bec8151c0726d5857980a866818301527fc42f6bbfbb95e5213e47275c8226de1297d43ea8038fc78774d1b8e60abf61e481840152466060820152306080808301919091528351808303909101815260a090910183528051908201206001600160a01b038b166000908152600290925291812080547f6e71edae12b1b97f4d1f60370fef10105fa2faae0126114a169c64845d6126c9918c918c918c91908661113c836120d1565b909155506040805160208101969096526001600160a01b0394851690860152929091166060840152608083015260a082015260c0810188905260e001604051602081830303815290604052805190602001209050600082826040516020016111a59291906120b6565b60408051601f198184030181528282528051602091820120600080855291840180845281905260ff8b169284019290925260608301899052608083018890529092509060019060a0016020604051602081039080840390855afa158015611210573d6000803e3d6000fd5b5050604051601f1901519150506001600160a01b0381166112735760405162461bcd60e51b815260206004820181905260248201527f526f7574653a3a7065726d69743a20696e76616c6964207369676e61747572656044820152606401610794565b8b6001600160a01b0316816001600160a01b0316146112d45760405162461bcd60e51b815260206004820152601b60248201527f526f7574653a3a7065726d69743a20756e617574686f72697a656400000000006044820152606401610794565b884211156113245760405162461bcd60e51b815260206004820181905260248201527f526f7574653a3a7065726d69743a207369676e617475726520657870697265646044820152606401610794565b84600460008e6001600160a01b03166001600160a01b0316815260200190815260200160002060008d6001600160a01b03166001600160a01b03168152602001908152602001600020819055508a6001600160a01b03168c6001600160a01b03167f8c5be1e5ebec7d5bd14f71427d1e84f3dd0314c0f7b2291e5b200ac8c7c3b925876040516113b691815260200190565b60405180910390a3505050505050505050505050565b600030330361142257600080368080601f0160208091040260200160405190810160405280939291908181526020018383808284376000920191909152505050503601516001600160a01b031691506114259050565b50335b90565b60006001600160a01b03861661148e5760405162461bcd60e51b815260206004820152602560248201527f4e61746976654d6574615472616e73616374696f6e3a20494e56414c49445f5360448201526424a3a722a960d91b6064820152608401610794565b60016114a161149c8761184e565b6118cb565b6040805160008152602081018083529290925260ff851690820152606081018690526080810185905260a0016020604051602081039080840390855afa1580156114ef573d6000803e3d6000fd5b505050602060405103516001600160a01b0316866001600160a01b031614905095945050505050565b60008061152583856120ea565b905083811015610d455760405162461bcd60e51b815260206004820152601b60248201527f536166654d6174683a206164646974696f6e206f766572666c6f7700000000006044820152606401610794565b6000818484111561159b5760405162461bcd60e51b81526004016107949190611cd1565b506115a683856120fd565b949350505050565b6001600160a01b03831661162a5760405162461bcd60e51b815260206004820152603d60248201527f526f7574653a3a5f7472616e73666572546f6b656e733a2063616e6e6f74207460448201527f72616e736665722066726f6d20746865207a65726f20616464726573730000006064820152608401610794565b6001600160a01b0382166116a65760405162461bcd60e51b815260206004820152603b60248201527f526f7574653a3a5f7472616e73666572546f6b656e733a2063616e6e6f74207460448201527f72616e7366657220746f20746865207a65726f206164647265737300000000006064820152608401610794565b6116ee60056000856001600160a01b03166001600160a01b0316815260200190815260200160002054826040518060600160405280603781526020016121e460379139611577565b6001600160a01b03808516600090815260056020908152604080832094909455918516815282902054825160608101909352603180845261173b9391928592919061221b908301396118e8565b6001600160a01b0380841660008181526005602052604090819020939093559151908516907fddf252ad1be2c89b69c2b068fc378daa952ba7f163c4a11628f55a4df523b3ef9061178f9085815260200190565b60405180910390a36001600160a01b038084166000908152600660205260408082205485841683529120546117c992918216911683611922565b505050565b6001600160a01b03808316600081815260066020818152604080842080546005845282862054949093528787166001600160a01b03198416811790915590519190951694919391928592917f3134e8a2e6d97e929a7e54011ea5485d7d196dd5f0ba4d4ef95803e8e3fc257f9190a4611848828483611922565b50505050565b600060405180608001604052806043815260200161212e60439139805160209182012083518483015160408087015180519086012090516118ae950193845260208401929092526001600160a01b03166040830152606082015260800190565b604051602081830303815290604052805190602001209050919050565b60006118d660015490565b826040516020016118ae9291906120b6565b6000806118f584866120ea565b905082858210156119195760405162461bcd60e51b81526004016107949190611cd1565b50949350505050565b816001600160a01b0316836001600160a01b0316141580156119445750600081115b156117c9576001600160a01b03831615611a00576001600160a01b03831660009081526008602052604081205463ffffffff1690816119845760006119c7565b6001600160a01b0385166000908152600760205260408120906119a8600185612061565b63ffffffff1663ffffffff168152602001908152602001600020600101545b905060006119ee828560405180606001604052806029815260200161224c60299139611577565b90506119fc86848484611aaf565b5050505b6001600160a01b038216156117c9576001600160a01b03821660009081526008602052604081205463ffffffff169081611a3b576000611a7e565b6001600160a01b038416600090815260076020526040812090611a5f600185612061565b63ffffffff1663ffffffff168152602001908152602001600020600101545b90506000611aa582856040518060600160405280602881526020016122c0602891396118e8565b9050611021858484845b6000611ad34360405180606001604052806035815260200161217160359139611c51565b905060008463ffffffff16118015611b2d57506001600160a01b038516600090815260076020526040812063ffffffff831691611b11600188612061565b63ffffffff908116825260208201929092526040016000205416145b15611b76576001600160a01b03851660009081526007602052604081208391611b57600188612061565b63ffffffff168152602081019190915260400160002060010155611c06565b60408051808201825263ffffffff838116825260208083018681526001600160a01b038a166000908152600783528581208a851682529092529390209151825463ffffffff191691161781559051600191820155611bd5908590612110565b6001600160a01b0386166000908152600860205260409020805463ffffffff191663ffffffff929092169190911790555b60408051848152602081018490526001600160a01b038716917fdec2bacdd2f05b59de34da9b523dff8be42e5e38e818c82fdb0bae774387a724910160405180910390a25050505050565b6000816401000000008410611c795760405162461bcd60e51b81526004016107949190611cd1565b509192915050565b60005b83811015611c9c578181015183820152602001611c84565b50506000910152565b60008151808452611cbd816020860160208601611c81565b601f01601f19169290920160200192915050565b602081526000610d456020830184611ca5565b80356001600160a01b0381168114611cfb57600080fd5b919050565b60008060408385031215611d1357600080fd5b611d1c83611ce4565b946020939093013593505050565b634e487b7160e01b600052604160045260246000fd5b803560ff81168114611cfb57600080fd5b600080600080600060a08688031215611d6957600080fd5b611d7286611ce4565b9450602086013567ffffffffffffffff80821115611d8f57600080fd5b818801915088601f830112611da357600080fd5b813581811115611db557611db5611d2a565b604051601f8201601f19908116603f01168101908382118183101715611ddd57611ddd611d2a565b816040528281528b6020848701011115611df657600080fd5b8260208601602083013760006020848301015280985050505050506040860135925060608601359150611e2b60808701611d40565b90509295509295909350565b600080600060608486031215611e4c57600080fd5b611e5584611ce4565b9250611e6360208501611ce4565b9150604084013590509250925092565b600060208284031215611e8557600080fd5b610d4582611ce4565b60008060008060008060c08789031215611ea757600080fd5b611eb087611ce4565b95506020870135945060408701359350611ecc60608801611d40565b92506080870135915060a087013590509295509295509295565b600080600080600080600060e0888a031215611f0157600080fd5b611f0a88611ce4565b9650611f1860208901611ce4565b95506040880135945060608801359350611f3460808901611d40565b925060a0880135915060c0880135905092959891949750929550565b60008060408385031215611f6357600080fd5b611f6c83611ce4565b9150611f7a60208401611ce4565b90509250929050565b60008060408385031215611f9657600080fd5b611f9f83611ce4565b9150602083013563ffffffff81168114611fb857600080fd5b809150509250929050565b6001600160a01b03848116825283166020820152606060408201819052600090611fef90830184611ca5565b95945050505050565b6000835161200a818460208801611c81565b60609390931b6bffffffffffffffffffffffff19169190920190815260140192915050565b60008251612041818460208701611c81565b9190910192915050565b634e487b7160e01b600052601160045260246000fd5b63ffffffff82811682821603908082111561207e5761207e61204b565b5092915050565b600063ffffffff808416806120aa57634e487b7160e01b600052601260045260246000fd5b92169190910492915050565b61190160f01b81526002810192909252602282015260420190565b6000600182016120e3576120e361204b565b5060010190565b808201808211156106fe576106fe61204b565b818103818111156106fe576106fe61204b565b63ffffffff81811683821601908082111561207e5761207e61204b56fe4d6574615472616e73616374696f6e2875696e74323536206e6f6e63652c616464726573732066726f6d2c62797465732066756e6374696f6e5369676e617475726529526f7574653a3a5f7772697465436865636b706f696e743a20626c6f636b206e756d62657220657863656564732033322062697473526f7574653a3a7472616e7366657246726f6d3a207472616e7366657220616d6f756e742065786365656473207370656e64657220616c6c6f77616e6365526f7574653a3a5f7472616e73666572546f6b656e733a207472616e7366657220616d6f756e7420657863656564732062616c616e6365526f7574653a3a5f7472616e73666572546f6b656e733a207472616e7366657220616d6f756e74206f766572666c6f7773526f7574653a3a5f6d6f7665566f7465733a20766f746520616d6f756e7420756e646572666c6f7773526f7574653a3a7065726d69743a20616d6f756e7420657863656564732039362062697473526f7574653a3a617070726f76653a20616d6f756e7420657863656564732039362062697473526f7574653a3a5f6d6f7665566f7465733a20766f746520616d6f756e74206f766572666c6f7773526f7574653a3a7472616e736665723a20616d6f756e7420657863656564732039362062697473a26469706673582212208bd302051150fe5b4a8ccaca48ddd3137bc74aca48792b4013b51bb896173fab64736f6c63430008130033",
    "sourcePath": "/home/aadarsh/CertoraInit/contracts/Route.sol",
    "compiler": {
        "name": "solc",
        "version": "0.8.19+commit.7dd6d404"
    },
    "functionHashes": {
        "DELEGATION_TYPEHASH()": "e7a324dc",
        "DOMAIN_TYPEHASH()": "20606b70",
        "ERC712_VERSION()": "0f7e5970",
        "PERMIT_TYPEHASH()": "30adf81f",
        "allowance(address,address)": "dd62ed3e",
        "approve(address,uint256)": "095ea7b3",
        "balanceOf(address)": "70a08231",
        "checkpoints(address,uint32)": "f1127ed8",
        "decimals()": "313ce567",
        "delegate(address)": "5c19a95c",
        "delegateBySig(address,uint256,uint256,uint8,bytes32,bytes32)": "c3cda520",
        "delegates(address)": "587cde1e",
        "executeMetaTransaction(address,bytes,bytes32,bytes32,uint8)": "0c53c51c",
        "getChainId()": "3408e470",
        "getCurrentVotes(address)": "b4b5ea57",
        "getDomainSeperator()": "20379ee5",
        "getNonce(address)": "2d0335ab",
        "getPriorVotes(address,uint256)": "782d6fe1",
        "name()": "06fdde03",
        "nonces(address)": "7ecebe00",
        "numCheckpoints(address)": "6fcfff45",
        "permit(address,address,uint256,uint256,uint8,bytes32,bytes32)": "d505accf",
        "symbol()": "95d89b41",
        "totalSupply()": "18160ddd",
        "transfer(address,uint256)": "a9059cbb",
        "transferFrom(address,address,uint256)": "23b872dd"
    },
    "gasEstimates": {
        "creation": {
            "codeDepositCost": "1805600",
            "executionCost": "infinite",
            "totalCost": "infinite"
        },
        "external": {
            "DELEGATION_TYPEHASH()": "283",
            "DOMAIN_TYPEHASH()": "241",
            "ERC712_VERSION()": "infinite",
            "PERMIT_TYPEHASH()": "240",
            "allowance(address,address)": "infinite",
            "approve(address,uint256)": "infinite",
            "balanceOf(address)": "2604",
            "checkpoints(address,uint32)": "4924",
            "decimals()": "271",
            "delegate(address)": "infinite",
            "delegateBySig(address,uint256,uint256,uint8,bytes32,bytes32)": "infinite",
            "delegates(address)": "2669",
            "executeMetaTransaction(address,bytes,bytes32,bytes32,uint8)": "infinite",
            "getChainId()": "280",
            "getCurrentVotes(address)": "infinite",
            "getDomainSeperator()": "2426",
            "getNonce(address)": "2627",
            "getPriorVotes(address,uint256)": "infinite",
            "name()": "infinite",
            "nonces(address)": "2630",
            "numCheckpoints(address)": "2579",
            "permit(address,address,uint256,uint256,uint8,bytes32,bytes32)": "infinite",
            "symbol()": "infinite",
            "totalSupply()": "2407",
            "transfer(address,uint256)": "infinite",
            "transferFrom(address,address,uint256)": "infinite"
        },
        "internal": {
            "_delegate(address,address)": "infinite",
            "_moveDelegates(address,address,uint256)": "infinite",
            "_transferTokens(address,address,uint256)": "infinite",
            "_writeCheckpoint(address,uint32,uint256,uint256)": "infinite",
            "add256(uint256,uint256,string memory)": "infinite",
            "safe256(uint256,string memory)": "infinite",
            "safe32(uint256,string memory)": "infinite",
            "sub256(uint256,uint256,string memory)": "infinite"
        }
    }
}